{
  "_format": "hh-sol-artifact-1",
  "contractName": "TruePassNFT",
  "sourceName": "contracts/TruePassNFT.sol",
  "abi": [
    {
      "inputs": [],
      "stateMutability": "nonpayable",
      "type": "constructor"
    },
    {
      "inputs": [],
      "name": "ERC721EnumerableForbiddenBatchMint",
      "type": "error"
    },
    {
      "inputs": [
        {
          "internalType": "address",
          "name": "sender",
          "type": "address"
        },
        {
          "internalType": "uint256",
          "name": "tokenId",
          "type": "uint256"
        },
        {
          "internalType": "address",
          "name": "owner",
          "type": "address"
        }
      ],
      "name": "ERC721IncorrectOwner",
      "type": "error"
    },
    {
      "inputs": [
        {
          "internalType": "address",
          "name": "operator",
          "type": "address"
        },
        {
          "internalType": "uint256",
          "name": "tokenId",
          "type": "uint256"
        }
      ],
      "name": "ERC721InsufficientApproval",
      "type": "error"
    },
    {
      "inputs": [
        {
          "internalType": "address",
          "name": "approver",
          "type": "address"
        }
      ],
      "name": "ERC721InvalidApprover",
      "type": "error"
    },
    {
      "inputs": [
        {
          "internalType": "address",
          "name": "operator",
          "type": "address"
        }
      ],
      "name": "ERC721InvalidOperator",
      "type": "error"
    },
    {
      "inputs": [
        {
          "internalType": "address",
          "name": "owner",
          "type": "address"
        }
      ],
      "name": "ERC721InvalidOwner",
      "type": "error"
    },
    {
      "inputs": [
        {
          "internalType": "address",
          "name": "receiver",
          "type": "address"
        }
      ],
      "name": "ERC721InvalidReceiver",
      "type": "error"
    },
    {
      "inputs": [
        {
          "internalType": "address",
          "name": "sender",
          "type": "address"
        }
      ],
      "name": "ERC721InvalidSender",
      "type": "error"
    },
    {
      "inputs": [
        {
          "internalType": "uint256",
          "name": "tokenId",
          "type": "uint256"
        }
      ],
      "name": "ERC721NonexistentToken",
      "type": "error"
    },
    {
      "inputs": [
        {
          "internalType": "address",
          "name": "owner",
          "type": "address"
        },
        {
          "internalType": "uint256",
          "name": "index",
          "type": "uint256"
        }
      ],
      "name": "ERC721OutOfBoundsIndex",
      "type": "error"
    },
    {
      "inputs": [
        {
          "internalType": "address",
          "name": "owner",
          "type": "address"
        }
      ],
      "name": "OwnableInvalidOwner",
      "type": "error"
    },
    {
      "inputs": [
        {
          "internalType": "address",
          "name": "account",
          "type": "address"
        }
      ],
      "name": "OwnableUnauthorizedAccount",
      "type": "error"
    },
    {
      "anonymous": false,
      "inputs": [
        {
          "indexed": true,
          "internalType": "address",
          "name": "owner",
          "type": "address"
        },
        {
          "indexed": true,
          "internalType": "address",
          "name": "approved",
          "type": "address"
        },
        {
          "indexed": true,
          "internalType": "uint256",
          "name": "tokenId",
          "type": "uint256"
        }
      ],
      "name": "Approval",
      "type": "event"
    },
    {
      "anonymous": false,
      "inputs": [
        {
          "indexed": true,
          "internalType": "address",
          "name": "owner",
          "type": "address"
        },
        {
          "indexed": true,
          "internalType": "address",
          "name": "operator",
          "type": "address"
        },
        {
          "indexed": false,
          "internalType": "bool",
          "name": "approved",
          "type": "bool"
        }
      ],
      "name": "ApprovalForAll",
      "type": "event"
    },
    {
      "anonymous": false,
      "inputs": [],
      "name": "ContractTerminated",
      "type": "event"
    },
    {
      "anonymous": false,
      "inputs": [
        {
          "indexed": true,
          "internalType": "address",
          "name": "previousOwner",
          "type": "address"
        },
        {
          "indexed": true,
          "internalType": "address",
          "name": "newOwner",
          "type": "address"
        }
      ],
      "name": "OwnershipTransferred",
      "type": "event"
    },
    {
      "anonymous": false,
      "inputs": [
        {
          "indexed": true,
          "internalType": "address",
          "name": "owner",
          "type": "address"
        },
        {
          "indexed": false,
          "internalType": "uint256",
          "name": "tokenId",
          "type": "uint256"
        }
      ],
      "name": "TicketMinted",
      "type": "event"
    },
    {
      "anonymous": false,
      "inputs": [
        {
          "indexed": true,
          "internalType": "address",
          "name": "from",
          "type": "address"
        },
        {
          "indexed": true,
          "internalType": "address",
          "name": "to",
          "type": "address"
        },
        {
          "indexed": true,
          "internalType": "uint256",
          "name": "tokenId",
          "type": "uint256"
        }
      ],
      "name": "Transfer",
      "type": "event"
    },
    {
      "inputs": [
        {
          "internalType": "address",
          "name": "to",
          "type": "address"
        },
        {
          "internalType": "uint256",
          "name": "tokenId",
          "type": "uint256"
        }
      ],
      "name": "approve",
      "outputs": [],
      "stateMutability": "nonpayable",
      "type": "function"
    },
    {
      "inputs": [
        {
          "internalType": "address",
          "name": "owner",
          "type": "address"
        }
      ],
      "name": "balanceOf",
      "outputs": [
        {
          "internalType": "uint256",
          "name": "",
          "type": "uint256"
        }
      ],
      "stateMutability": "view",
      "type": "function"
    },
    {
      "inputs": [],
      "name": "contractDisabled",
      "outputs": [
        {
          "internalType": "bool",
          "name": "",
          "type": "bool"
        }
      ],
      "stateMutability": "view",
      "type": "function"
    },
    {
      "inputs": [
        {
          "internalType": "uint256",
          "name": "tokenId",
          "type": "uint256"
        }
      ],
      "name": "getApproved",
      "outputs": [
        {
          "internalType": "address",
          "name": "",
          "type": "address"
        }
      ],
      "stateMutability": "view",
      "type": "function"
    },
    {
      "inputs": [],
      "name": "integrityHash",
      "outputs": [
        {
          "internalType": "bytes32",
          "name": "",
          "type": "bytes32"
        }
      ],
      "stateMutability": "view",
      "type": "function"
    },
    {
      "inputs": [
        {
          "internalType": "address",
          "name": "owner",
          "type": "address"
        },
        {
          "internalType": "address",
          "name": "operator",
          "type": "address"
        }
      ],
      "name": "isApprovedForAll",
      "outputs": [
        {
          "internalType": "bool",
          "name": "",
          "type": "bool"
        }
      ],
      "stateMutability": "view",
      "type": "function"
    },
    {
      "inputs": [
        {
          "internalType": "address",
          "name": "to",
          "type": "address"
        }
      ],
      "name": "mintTicket",
      "outputs": [],
      "stateMutability": "nonpayable",
      "type": "function"
    },
    {
      "inputs": [],
      "name": "name",
      "outputs": [
        {
          "internalType": "string",
          "name": "",
          "type": "string"
        }
      ],
      "stateMutability": "view",
      "type": "function"
    },
    {
      "inputs": [],
      "name": "nextTokenId",
      "outputs": [
        {
          "internalType": "uint256",
          "name": "",
          "type": "uint256"
        }
      ],
      "stateMutability": "view",
      "type": "function"
    },
    {
      "inputs": [],
      "name": "owner",
      "outputs": [
        {
          "internalType": "address",
          "name": "",
          "type": "address"
        }
      ],
      "stateMutability": "view",
      "type": "function"
    },
    {
      "inputs": [
        {
          "internalType": "uint256",
          "name": "tokenId",
          "type": "uint256"
        }
      ],
      "name": "ownerOf",
      "outputs": [
        {
          "internalType": "address",
          "name": "",
          "type": "address"
        }
      ],
      "stateMutability": "view",
      "type": "function"
    },
    {
      "inputs": [],
      "name": "renounceOwnership",
      "outputs": [],
      "stateMutability": "nonpayable",
      "type": "function"
    },
    {
      "inputs": [
        {
          "internalType": "address",
          "name": "from",
          "type": "address"
        },
        {
          "internalType": "address",
          "name": "to",
          "type": "address"
        },
        {
          "internalType": "uint256",
          "name": "tokenId",
          "type": "uint256"
        }
      ],
      "name": "safeTransferFrom",
      "outputs": [],
      "stateMutability": "nonpayable",
      "type": "function"
    },
    {
      "inputs": [
        {
          "internalType": "address",
          "name": "from",
          "type": "address"
        },
        {
          "internalType": "address",
          "name": "to",
          "type": "address"
        },
        {
          "internalType": "uint256",
          "name": "tokenId",
          "type": "uint256"
        },
        {
          "internalType": "bytes",
          "name": "data",
          "type": "bytes"
        }
      ],
      "name": "safeTransferFrom",
      "outputs": [],
      "stateMutability": "nonpayable",
      "type": "function"
    },
    {
      "inputs": [
        {
          "internalType": "address",
          "name": "operator",
          "type": "address"
        },
        {
          "internalType": "bool",
          "name": "approved",
          "type": "bool"
        }
      ],
      "name": "setApprovalForAll",
      "outputs": [],
      "stateMutability": "nonpayable",
      "type": "function"
    },
    {
      "inputs": [
        {
          "internalType": "bytes32",
          "name": "newHash",
          "type": "bytes32"
        }
      ],
      "name": "setIntegrityHash",
      "outputs": [],
      "stateMutability": "nonpayable",
      "type": "function"
    },
    {
      "inputs": [
        {
          "internalType": "bytes4",
          "name": "interfaceId",
          "type": "bytes4"
        }
      ],
      "name": "supportsInterface",
      "outputs": [
        {
          "internalType": "bool",
          "name": "",
          "type": "bool"
        }
      ],
      "stateMutability": "view",
      "type": "function"
    },
    {
      "inputs": [],
      "name": "symbol",
      "outputs": [
        {
          "internalType": "string",
          "name": "",
          "type": "string"
        }
      ],
      "stateMutability": "view",
      "type": "function"
    },
    {
      "inputs": [
        {
          "internalType": "bytes32",
          "name": "newHash",
          "type": "bytes32"
        }
      ],
      "name": "terminateContract",
      "outputs": [],
      "stateMutability": "nonpayable",
      "type": "function"
    },
    {
      "inputs": [
        {
          "internalType": "uint256",
          "name": "index",
          "type": "uint256"
        }
      ],
      "name": "tokenByIndex",
      "outputs": [
        {
          "internalType": "uint256",
          "name": "",
          "type": "uint256"
        }
      ],
      "stateMutability": "view",
      "type": "function"
    },
    {
      "inputs": [
        {
          "internalType": "address",
          "name": "owner",
          "type": "address"
        },
        {
          "internalType": "uint256",
          "name": "index",
          "type": "uint256"
        }
      ],
      "name": "tokenOfOwnerByIndex",
      "outputs": [
        {
          "internalType": "uint256",
          "name": "",
          "type": "uint256"
        }
      ],
      "stateMutability": "view",
      "type": "function"
    },
    {
      "inputs": [
        {
          "internalType": "uint256",
          "name": "tokenId",
          "type": "uint256"
        }
      ],
      "name": "tokenURI",
      "outputs": [
        {
          "internalType": "string",
          "name": "",
          "type": "string"
        }
      ],
      "stateMutability": "view",
      "type": "function"
    },
    {
      "inputs": [],
      "name": "totalSupply",
      "outputs": [
        {
          "internalType": "uint256",
          "name": "",
          "type": "uint256"
        }
      ],
      "stateMutability": "view",
      "type": "function"
    },
    {
      "inputs": [
        {
          "internalType": "address",
          "name": "from",
          "type": "address"
        },
        {
          "internalType": "address",
          "name": "to",
          "type": "address"
        },
        {
          "internalType": "uint256",
          "name": "tokenId",
          "type": "uint256"
        }
      ],
      "name": "transferFrom",
      "outputs": [],
      "stateMutability": "nonpayable",
      "type": "function"
    },
    {
      "inputs": [
        {
          "internalType": "address",
          "name": "newOwner",
          "type": "address"
        }
      ],
      "name": "transferOwnership",
      "outputs": [],
      "stateMutability": "nonpayable",
      "type": "function"
    }
  ],
  "bytecode": "0x60806040523480156200001157600080fd5b50336040518060400160405280600b81526020017f54727565506173734e46540000000000000000000000000000000000000000008152506040518060400160405280600581526020017f54504153530000000000000000000000000000000000000000000000000000008152508160009081620000909190620004b8565b508060019081620000a29190620004b8565b505050600073ffffffffffffffffffffffffffffffffffffffff168173ffffffffffffffffffffffffffffffffffffffff16036200011a5760006040517f1e4fbdf7000000000000000000000000000000000000000000000000000000008152600401620001119190620005e4565b60405180910390fd5b6200012b816200017860201b60201c565b506040518060800160405280604381526020016200342460439139600c9081620001569190620004b8565b506000600e60006101000a81548160ff02191690831515021790555062000601565b6000600a60009054906101000a900473ffffffffffffffffffffffffffffffffffffffff16905081600a60006101000a81548173ffffffffffffffffffffffffffffffffffffffff021916908373ffffffffffffffffffffffffffffffffffffffff1602179055508173ffffffffffffffffffffffffffffffffffffffff168173ffffffffffffffffffffffffffffffffffffffff167f8be0079c531659141344cd1fd0a4f28419497f9722a3daafe3b4186f6b6457e060405160405180910390a35050565b600081519050919050565b7f4e487b7100000000000000000000000000000000000000000000000000000000600052604160045260246000fd5b7f4e487b7100000000000000000000000000000000000000000000000000000000600052602260045260246000fd5b60006002820490506001821680620002c057607f821691505b602082108103620002d657620002d562000278565b5b50919050565b60008190508160005260206000209050919050565b60006020601f8301049050919050565b600082821b905092915050565b600060088302620003407fffffffffffffffffffffffffffffffffffffffffffffffffffffffffffffffff8262000301565b6200034c868362000301565b95508019841693508086168417925050509392505050565b6000819050919050565b6000819050919050565b600062000399620003936200038d8462000364565b6200036e565b62000364565b9050919050565b6000819050919050565b620003b58362000378565b620003cd620003c482620003a0565b8484546200030e565b825550505050565b600090565b620003e4620003d5565b620003f1818484620003aa565b505050565b5b8181101562000419576200040d600082620003da565b600181019050620003f7565b5050565b601f82111562000468576200043281620002dc565b6200043d84620002f1565b810160208510156200044d578190505b620004656200045c85620002f1565b830182620003f6565b50505b505050565b600082821c905092915050565b60006200048d600019846008026200046d565b1980831691505092915050565b6000620004a883836200047a565b9150826002028217905092915050565b620004c3826200023e565b67ffffffffffffffff811115620004df57620004de62000249565b5b620004eb8254620002a7565b620004f88282856200041d565b600060209050601f8311600181146200053057600084156200051b578287015190505b6200052785826200049a565b86555062000597565b601f1984166200054086620002dc565b60005b828110156200056a5784890151825560018201915060208501945060208101905062000543565b868310156200058a578489015162000586601f8916826200047a565b8355505b6001600288020188555050505b505050505050565b600073ffffffffffffffffffffffffffffffffffffffff82169050919050565b6000620005cc826200059f565b9050919050565b620005de81620005bf565b82525050565b6000602082019050620005fb6000830184620005d3565b92915050565b612e1380620006116000396000f3fe608060405234801561001057600080fd5b50600436106101735760003560e01c80636352211e116100de5780639969452311610097578063b88d4fde11610071578063b88d4fde14610438578063c87b56dd14610454578063e985e9c514610484578063f2fde38b146104b457610173565b806399694523146103e2578063a088dd61146103fe578063a22cb4651461041c57610173565b80636352211e1461031e57806370a082311461034e578063715018a61461037e57806375794a3c146103885780638da5cb5b146103a657806395d89b41146103c457610173565b806323b872dd1161013057806323b872dd1461024c5780632f745c5914610268578063313cedf01461029857806342842e0e146102b65780634f6ccce7146102d2578063574ed1ee1461030257610173565b806301ffc9a71461017857806306fdde03146101a8578063081812fc146101c657806308e9bd26146101f6578063095ea7b31461021257806318160ddd1461022e575b600080fd5b610192600480360381019061018d919061235a565b6104d0565b60405161019f91906123a2565b60405180910390f35b6101b061054a565b6040516101bd919061244d565b60405180910390f35b6101e060048036038101906101db91906124a5565b6105dc565b6040516101ed9190612513565b60405180910390f35b610210600480360381019061020b919061255a565b6105f8565b005b61022c60048036038101906102279190612587565b6106cb565b005b6102366106e1565b60405161024391906125d6565b60405180910390f35b610266600480360381019061026191906125f1565b6106ee565b005b610282600480360381019061027d9190612587565b6107f0565b60405161028f91906125d6565b60405180910390f35b6102a0610899565b6040516102ad91906123a2565b60405180910390f35b6102d060048036038101906102cb91906125f1565b6108ac565b005b6102ec60048036038101906102e791906124a5565b6108cc565b6040516102f991906125d6565b60405180910390f35b61031c6004803603810190610317919061267a565b610942565b005b610338600480360381019061033391906124a5565b6109a4565b6040516103459190612513565b60405180910390f35b6103686004803603810190610363919061255a565b6109b6565b60405161037591906125d6565b60405180910390f35b610386610a70565b005b610390610a84565b60405161039d91906125d6565b60405180910390f35b6103ae610a8a565b6040516103bb9190612513565b60405180910390f35b6103cc610ab4565b6040516103d9919061244d565b60405180910390f35b6103fc60048036038101906103f7919061267a565b610b46565b005b610406610cd0565b60405161041391906126b6565b60405180910390f35b610436600480360381019061043191906126fd565b610cd6565b005b610452600480360381019061044d9190612872565b610cec565b005b61046e600480360381019061046991906124a5565b610d11565b60405161047b919061244d565b60405180910390f35b61049e600480360381019061049991906128f5565b610d7a565b6040516104ab91906123a2565b60405180910390f35b6104ce60048036038101906104c9919061255a565b610e0e565b005b60007f780e9d63000000000000000000000000000000000000000000000000000000007bffffffffffffffffffffffffffffffffffffffffffffffffffffffff1916827bffffffffffffffffffffffffffffffffffffffffffffffffffffffff19161480610543575061054282610e94565b5b9050919050565b60606000805461055990612964565b80601f016020809104026020016040519081016040528092919081815260200182805461058590612964565b80156105d25780601f106105a7576101008083540402835291602001916105d2565b820191906000526020600020905b8154815290600101906020018083116105b557829003601f168201915b5050505050905090565b60006105e782610f76565b506105f182610ffe565b9050919050565b61060061103b565b600e60009054906101000a900460ff1615610650576040517f08c379a0000000000000000000000000000000000000000000000000000000008152600401610647906129e1565b60405180910390fd5b6000600b54905061066182826110c2565b600b600081548092919061067490612a30565b91905055508173ffffffffffffffffffffffffffffffffffffffff167fe3bc6f5972e89b7adec47f0277204f27cd981570e200dd4d408093535c9e8e69826040516106bf91906125d6565b60405180910390a25050565b6106dd82826106d86110e0565b6110e8565b5050565b6000600880549050905090565b600073ffffffffffffffffffffffffffffffffffffffff168273ffffffffffffffffffffffffffffffffffffffff16036107605760006040517f64a0ae920000000000000000000000000000000000000000000000000000000081526004016107579190612513565b60405180910390fd5b6000610774838361076f6110e0565b6110fa565b90508373ffffffffffffffffffffffffffffffffffffffff168173ffffffffffffffffffffffffffffffffffffffff16146107ea578382826040517f64283d7b0000000000000000000000000000000000000000000000000000000081526004016107e193929190612a78565b60405180910390fd5b50505050565b60006107fb836109b6565b82106108405782826040517fa57d13dc000000000000000000000000000000000000000000000000000000008152600401610837929190612aaf565b60405180910390fd5b600660008473ffffffffffffffffffffffffffffffffffffffff1673ffffffffffffffffffffffffffffffffffffffff168152602001908152602001600020600083815260200190815260200160002054905092915050565b600e60009054906101000a900460ff1681565b6108c783838360405180602001604052806000815250610cec565b505050565b60006108d66106e1565b821061091c576000826040517fa57d13dc000000000000000000000000000000000000000000000000000000008152600401610913929190612aaf565b60405180910390fd5b600882815481106109305761092f612ad8565b5b90600052602060002001549050919050565b61094a61103b565b600e60009054906101000a900460ff161561099a576040517f08c379a0000000000000000000000000000000000000000000000000000000008152600401610991906129e1565b60405180910390fd5b80600d8190555050565b60006109af82610f76565b9050919050565b60008073ffffffffffffffffffffffffffffffffffffffff168273ffffffffffffffffffffffffffffffffffffffff1603610a295760006040517f89c62b64000000000000000000000000000000000000000000000000000000008152600401610a209190612513565b60405180910390fd5b600360008373ffffffffffffffffffffffffffffffffffffffff1673ffffffffffffffffffffffffffffffffffffffff168152602001908152602001600020549050919050565b610a7861103b565b610a826000611217565b565b600b5481565b6000600a60009054906101000a900473ffffffffffffffffffffffffffffffffffffffff16905090565b606060018054610ac390612964565b80601f0160208091040260200160405190810160405280929190818152602001828054610aef90612964565b8015610b3c5780601f10610b1157610100808354040283529160200191610b3c565b820191906000526020600020905b815481529060010190602001808311610b1f57829003601f168201915b5050505050905090565b610b4e61103b565b600e60009054906101000a900460ff1615610b9e576040517f08c379a0000000000000000000000000000000000000000000000000000000008152600401610b95906129e1565b60405180910390fd5b600d548103610be2576040517f08c379a0000000000000000000000000000000000000000000000000000000008152600401610bd990612b53565b60405180910390fd5b6000610bec6106e1565b11610c2c576040517f08c379a0000000000000000000000000000000000000000000000000000000008152600401610c2390612bbf565b60405180910390fd5b80600d819055506000610c3d6106e1565b905060008190505b6000811115610c84576000610c65600183610c609190612bdf565b6108cc565b9050610c70816112dd565b508080610c7c90612c13565b915050610c45565b506001600e60006101000a81548160ff0219169083151502179055507f6d0d90585834980bd0e5603341ff50b06349c11e0bf9241d03f6d065f12a262b60405160405180910390a15050565b600d5481565b610ce8610ce16110e0565b8383611363565b5050565b610cf78484846106ee565b610d0b610d026110e0565b858585856114d2565b50505050565b6060610d1c82610f76565b506000610d27611683565b90506000815111610d475760405180602001604052806000815250610d72565b80610d5184611715565b604051602001610d62929190612c78565b6040516020818303038152906040525b915050919050565b6000600560008473ffffffffffffffffffffffffffffffffffffffff1673ffffffffffffffffffffffffffffffffffffffff16815260200190815260200160002060008373ffffffffffffffffffffffffffffffffffffffff1673ffffffffffffffffffffffffffffffffffffffff16815260200190815260200160002060009054906101000a900460ff16905092915050565b610e1661103b565b600073ffffffffffffffffffffffffffffffffffffffff168173ffffffffffffffffffffffffffffffffffffffff1603610e885760006040517f1e4fbdf7000000000000000000000000000000000000000000000000000000008152600401610e7f9190612513565b60405180910390fd5b610e9181611217565b50565b60007f80ac58cd000000000000000000000000000000000000000000000000000000007bffffffffffffffffffffffffffffffffffffffffffffffffffffffff1916827bffffffffffffffffffffffffffffffffffffffffffffffffffffffff19161480610f5f57507f5b5e139f000000000000000000000000000000000000000000000000000000007bffffffffffffffffffffffffffffffffffffffffffffffffffffffff1916827bffffffffffffffffffffffffffffffffffffffffffffffffffffffff1916145b80610f6f5750610f6e826117e3565b5b9050919050565b600080610f828361184d565b9050600073ffffffffffffffffffffffffffffffffffffffff168173ffffffffffffffffffffffffffffffffffffffff1603610ff557826040517f7e273289000000000000000000000000000000000000000000000000000000008152600401610fec91906125d6565b60405180910390fd5b80915050919050565b60006004600083815260200190815260200160002060009054906101000a900473ffffffffffffffffffffffffffffffffffffffff169050919050565b6110436110e0565b73ffffffffffffffffffffffffffffffffffffffff16611061610a8a565b73ffffffffffffffffffffffffffffffffffffffff16146110c0576110846110e0565b6040517f118cdaa70000000000000000000000000000000000000000000000000000000081526004016110b79190612513565b60405180910390fd5b565b6110dc82826040518060200160405280600081525061188a565b5050565b600033905090565b6110f583838360016118ae565b505050565b600080611108858585611a73565b9050600073ffffffffffffffffffffffffffffffffffffffff168173ffffffffffffffffffffffffffffffffffffffff160361114c5761114784611c8d565b61118b565b8473ffffffffffffffffffffffffffffffffffffffff168173ffffffffffffffffffffffffffffffffffffffff161461118a576111898185611cd6565b5b5b600073ffffffffffffffffffffffffffffffffffffffff168573ffffffffffffffffffffffffffffffffffffffff16036111cd576111c884611dc1565b61120c565b8473ffffffffffffffffffffffffffffffffffffffff168173ffffffffffffffffffffffffffffffffffffffff161461120b5761120a8585611e92565b5b5b809150509392505050565b6000600a60009054906101000a900473ffffffffffffffffffffffffffffffffffffffff16905081600a60006101000a81548173ffffffffffffffffffffffffffffffffffffffff021916908373ffffffffffffffffffffffffffffffffffffffff1602179055508173ffffffffffffffffffffffffffffffffffffffff168173ffffffffffffffffffffffffffffffffffffffff167f8be0079c531659141344cd1fd0a4f28419497f9722a3daafe3b4186f6b6457e060405160405180910390a35050565b60006112ec60008360006110fa565b9050600073ffffffffffffffffffffffffffffffffffffffff168173ffffffffffffffffffffffffffffffffffffffff160361135f57816040517f7e27328900000000000000000000000000000000000000000000000000000000815260040161135691906125d6565b60405180910390fd5b5050565b600073ffffffffffffffffffffffffffffffffffffffff168273ffffffffffffffffffffffffffffffffffffffff16036113d457816040517f5b08ba180000000000000000000000000000000000000000000000000000000081526004016113cb9190612513565b60405180910390fd5b80600560008573ffffffffffffffffffffffffffffffffffffffff1673ffffffffffffffffffffffffffffffffffffffff16815260200190815260200160002060008473ffffffffffffffffffffffffffffffffffffffff1673ffffffffffffffffffffffffffffffffffffffff16815260200190815260200160002060006101000a81548160ff0219169083151502179055508173ffffffffffffffffffffffffffffffffffffffff168373ffffffffffffffffffffffffffffffffffffffff167f17307eab39ab6107e8899845ad3d59bd9653f200f220920489ca2b5937696c31836040516114c591906123a2565b60405180910390a3505050565b60008373ffffffffffffffffffffffffffffffffffffffff163b111561167c578273ffffffffffffffffffffffffffffffffffffffff1663150b7a02868685856040518563ffffffff1660e01b81526004016115319493929190612cf1565b6020604051808303816000875af192505050801561156d57506040513d601f19601f8201168201806040525081019061156a9190612d52565b60015b6115f1573d806000811461159d576040519150601f19603f3d011682016040523d82523d6000602084013e6115a2565b606091505b5060008151036115e957836040517f64a0ae920000000000000000000000000000000000000000000000000000000081526004016115e09190612513565b60405180910390fd5b805181602001fd5b63150b7a0260e01b7bffffffffffffffffffffffffffffffffffffffffffffffffffffffff1916817bffffffffffffffffffffffffffffffffffffffffffffffffffffffff19161461167a57836040517f64a0ae920000000000000000000000000000000000000000000000000000000081526004016116719190612513565b60405180910390fd5b505b5050505050565b6060600c805461169290612964565b80601f01602080910402602001604051908101604052809291908181526020018280546116be90612964565b801561170b5780601f106116e05761010080835404028352916020019161170b565b820191906000526020600020905b8154815290600101906020018083116116ee57829003601f168201915b5050505050905090565b60606000600161172484611f1d565b01905060008167ffffffffffffffff81111561174357611742612747565b5b6040519080825280601f01601f1916602001820160405280156117755781602001600182028036833780820191505090505b509050600082602001820190505b6001156117d8578080600190039150507f3031323334353637383961626364656600000000000000000000000000000000600a86061a8153600a85816117cc576117cb612d7f565b5b04945060008503611783575b819350505050919050565b60007f01ffc9a7000000000000000000000000000000000000000000000000000000007bffffffffffffffffffffffffffffffffffffffffffffffffffffffff1916827bffffffffffffffffffffffffffffffffffffffffffffffffffffffff1916149050919050565b60006002600083815260200190815260200160002060009054906101000a900473ffffffffffffffffffffffffffffffffffffffff169050919050565b6118948383612070565b6118a961189f6110e0565b60008585856114d2565b505050565b80806118e75750600073ffffffffffffffffffffffffffffffffffffffff168273ffffffffffffffffffffffffffffffffffffffff1614155b15611a1b5760006118f784610f76565b9050600073ffffffffffffffffffffffffffffffffffffffff168373ffffffffffffffffffffffffffffffffffffffff161415801561196257508273ffffffffffffffffffffffffffffffffffffffff168173ffffffffffffffffffffffffffffffffffffffff1614155b801561197557506119738184610d7a565b155b156119b757826040517fa9fbf51f0000000000000000000000000000000000000000000000000000000081526004016119ae9190612513565b60405180910390fd5b8115611a1957838573ffffffffffffffffffffffffffffffffffffffff168273ffffffffffffffffffffffffffffffffffffffff167f8c5be1e5ebec7d5bd14f71427d1e84f3dd0314c0f7b2291e5b200ac8c7c3b92560405160405180910390a45b505b836004600085815260200190815260200160002060006101000a81548173ffffffffffffffffffffffffffffffffffffffff021916908373ffffffffffffffffffffffffffffffffffffffff16021790555050505050565b600080611a7f8461184d565b9050600073ffffffffffffffffffffffffffffffffffffffff168373ffffffffffffffffffffffffffffffffffffffff1614611ac157611ac0818486612169565b5b600073ffffffffffffffffffffffffffffffffffffffff168173ffffffffffffffffffffffffffffffffffffffff1614611b5257611b036000856000806118ae565b6001600360008373ffffffffffffffffffffffffffffffffffffffff1673ffffffffffffffffffffffffffffffffffffffff168152602001908152602001600020600082825403925050819055505b600073ffffffffffffffffffffffffffffffffffffffff168573ffffffffffffffffffffffffffffffffffffffff1614611bd5576001600360008773ffffffffffffffffffffffffffffffffffffffff1673ffffffffffffffffffffffffffffffffffffffff168152602001908152602001600020600082825401925050819055505b846002600086815260200190815260200160002060006101000a81548173ffffffffffffffffffffffffffffffffffffffff021916908373ffffffffffffffffffffffffffffffffffffffff160217905550838573ffffffffffffffffffffffffffffffffffffffff168273ffffffffffffffffffffffffffffffffffffffff167fddf252ad1be2c89b69c2b068fc378daa952ba7f163c4a11628f55a4df523b3ef60405160405180910390a4809150509392505050565b6008805490506009600083815260200190815260200160002081905550600881908060018154018082558091505060019003906000526020600020016000909190919091505550565b6000611ce1836109b6565b90506000600760008481526020019081526020016000205490506000600660008673ffffffffffffffffffffffffffffffffffffffff1673ffffffffffffffffffffffffffffffffffffffff1681526020019081526020016000209050828214611d8d5760008160008581526020019081526020016000205490508082600085815260200190815260200160002081905550826007600083815260200190815260200160002081905550505b6007600085815260200190815260200160002060009055806000848152602001908152602001600020600090555050505050565b60006001600880549050611dd59190612bdf565b9050600060096000848152602001908152602001600020549050600060088381548110611e0557611e04612ad8565b5b906000526020600020015490508060088381548110611e2757611e26612ad8565b5b906000526020600020018190555081600960008381526020019081526020016000208190555060096000858152602001908152602001600020600090556008805480611e7657611e75612dae565b5b6001900381819060005260206000200160009055905550505050565b60006001611e9f846109b6565b611ea99190612bdf565b905081600660008573ffffffffffffffffffffffffffffffffffffffff1673ffffffffffffffffffffffffffffffffffffffff168152602001908152602001600020600083815260200190815260200160002081905550806007600084815260200190815260200160002081905550505050565b600080600090507a184f03e93ff9f4daa797ed6e38ed64bf6a1f0100000000000000008310611f7b577a184f03e93ff9f4daa797ed6e38ed64bf6a1f0100000000000000008381611f7157611f70612d7f565b5b0492506040810190505b6d04ee2d6d415b85acef81000000008310611fb8576d04ee2d6d415b85acef81000000008381611fae57611fad612d7f565b5b0492506020810190505b662386f26fc100008310611fe757662386f26fc100008381611fdd57611fdc612d7f565b5b0492506010810190505b6305f5e1008310612010576305f5e100838161200657612005612d7f565b5b0492506008810190505b612710831061203557612710838161202b5761202a612d7f565b5b0492506004810190505b60648310612058576064838161204e5761204d612d7f565b5b0492506002810190505b600a8310612067576001810190505b80915050919050565b600073ffffffffffffffffffffffffffffffffffffffff168273ffffffffffffffffffffffffffffffffffffffff16036120e25760006040517f64a0ae920000000000000000000000000000000000000000000000000000000081526004016120d99190612513565b60405180910390fd5b60006120f0838360006110fa565b9050600073ffffffffffffffffffffffffffffffffffffffff168173ffffffffffffffffffffffffffffffffffffffff16146121645760006040517f73c6ac6e00000000000000000000000000000000000000000000000000000000815260040161215b9190612513565b60405180910390fd5b505050565b61217483838361222d565b61222857600073ffffffffffffffffffffffffffffffffffffffff168373ffffffffffffffffffffffffffffffffffffffff16036121e957806040517f7e2732890000000000000000000000000000000000000000000000000000000081526004016121e091906125d6565b60405180910390fd5b81816040517f177e802f00000000000000000000000000000000000000000000000000000000815260040161221f929190612aaf565b60405180910390fd5b505050565b60008073ffffffffffffffffffffffffffffffffffffffff168373ffffffffffffffffffffffffffffffffffffffff16141580156122e557508273ffffffffffffffffffffffffffffffffffffffff168473ffffffffffffffffffffffffffffffffffffffff1614806122a657506122a58484610d7a565b5b806122e457508273ffffffffffffffffffffffffffffffffffffffff166122cc83610ffe565b73ffffffffffffffffffffffffffffffffffffffff16145b5b90509392505050565b6000604051905090565b600080fd5b600080fd5b60007fffffffff0000000000000000000000000000000000000000000000000000000082169050919050565b61233781612302565b811461234257600080fd5b50565b6000813590506123548161232e565b92915050565b6000602082840312156123705761236f6122f8565b5b600061237e84828501612345565b91505092915050565b60008115159050919050565b61239c81612387565b82525050565b60006020820190506123b76000830184612393565b92915050565b600081519050919050565b600082825260208201905092915050565b60005b838110156123f75780820151818401526020810190506123dc565b60008484015250505050565b6000601f19601f8301169050919050565b600061241f826123bd565b61242981856123c8565b93506124398185602086016123d9565b61244281612403565b840191505092915050565b600060208201905081810360008301526124678184612414565b905092915050565b6000819050919050565b6124828161246f565b811461248d57600080fd5b50565b60008135905061249f81612479565b92915050565b6000602082840312156124bb576124ba6122f8565b5b60006124c984828501612490565b91505092915050565b600073ffffffffffffffffffffffffffffffffffffffff82169050919050565b60006124fd826124d2565b9050919050565b61250d816124f2565b82525050565b60006020820190506125286000830184612504565b92915050565b612537816124f2565b811461254257600080fd5b50565b6000813590506125548161252e565b92915050565b6000602082840312156125705761256f6122f8565b5b600061257e84828501612545565b91505092915050565b6000806040838503121561259e5761259d6122f8565b5b60006125ac85828601612545565b92505060206125bd85828601612490565b9150509250929050565b6125d08161246f565b82525050565b60006020820190506125eb60008301846125c7565b92915050565b60008060006060848603121561260a576126096122f8565b5b600061261886828701612545565b935050602061262986828701612545565b925050604061263a86828701612490565b9150509250925092565b6000819050919050565b61265781612644565b811461266257600080fd5b50565b6000813590506126748161264e565b92915050565b6000602082840312156126905761268f6122f8565b5b600061269e84828501612665565b91505092915050565b6126b081612644565b82525050565b60006020820190506126cb60008301846126a7565b92915050565b6126da81612387565b81146126e557600080fd5b50565b6000813590506126f7816126d1565b92915050565b60008060408385031215612714576127136122f8565b5b600061272285828601612545565b9250506020612733858286016126e8565b9150509250929050565b600080fd5b600080fd5b7f4e487b7100000000000000000000000000000000000000000000000000000000600052604160045260246000fd5b61277f82612403565b810181811067ffffffffffffffff8211171561279e5761279d612747565b5b80604052505050565b60006127b16122ee565b90506127bd8282612776565b919050565b600067ffffffffffffffff8211156127dd576127dc612747565b5b6127e682612403565b9050602081019050919050565b82818337600083830152505050565b6000612815612810846127c2565b6127a7565b90508281526020810184848401111561283157612830612742565b5b61283c8482856127f3565b509392505050565b600082601f8301126128595761285861273d565b5b8135612869848260208601612802565b91505092915050565b6000806000806080858703121561288c5761288b6122f8565b5b600061289a87828801612545565b94505060206128ab87828801612545565b93505060406128bc87828801612490565b925050606085013567ffffffffffffffff8111156128dd576128dc6122fd565b5b6128e987828801612844565b91505092959194509250565b6000806040838503121561290c5761290b6122f8565b5b600061291a85828601612545565b925050602061292b85828601612545565b9150509250929050565b7f4e487b7100000000000000000000000000000000000000000000000000000000600052602260045260246000fd5b6000600282049050600182168061297c57607f821691505b60208210810361298f5761298e612935565b5b50919050565b7f436f6e7472616374206973207465726d696e6174656400000000000000000000600082015250565b60006129cb6016836123c8565b91506129d682612995565b602082019050919050565b600060208201905081810360008301526129fa816129be565b9050919050565b7f4e487b7100000000000000000000000000000000000000000000000000000000600052601160045260246000fd5b6000612a3b8261246f565b91507fffffffffffffffffffffffffffffffffffffffffffffffffffffffffffffffff8203612a6d57612a6c612a01565b5b600182019050919050565b6000606082019050612a8d6000830186612504565b612a9a60208301856125c7565b612aa76040830184612504565b949350505050565b6000604082019050612ac46000830185612504565b612ad160208301846125c7565b9392505050565b7f4e487b7100000000000000000000000000000000000000000000000000000000600052603260045260246000fd5b7f4861736820756e6368616e6765642c2063616e6e6f74207465726d696e617465600082015250565b6000612b3d6020836123c8565b9150612b4882612b07565b602082019050919050565b60006020820190508181036000830152612b6c81612b30565b9050919050565b7f4e6f204e46547320746f206275726e0000000000000000000000000000000000600082015250565b6000612ba9600f836123c8565b9150612bb482612b73565b602082019050919050565b60006020820190508181036000830152612bd881612b9c565b9050919050565b6000612bea8261246f565b9150612bf58361246f565b9250828203905081811115612c0d57612c0c612a01565b5b92915050565b6000612c1e8261246f565b915060008203612c3157612c30612a01565b5b600182039050919050565b600081905092915050565b6000612c52826123bd565b612c5c8185612c3c565b9350612c6c8185602086016123d9565b80840191505092915050565b6000612c848285612c47565b9150612c908284612c47565b91508190509392505050565b600081519050919050565b600082825260208201905092915050565b6000612cc382612c9c565b612ccd8185612ca7565b9350612cdd8185602086016123d9565b612ce681612403565b840191505092915050565b6000608082019050612d066000830187612504565b612d136020830186612504565b612d2060408301856125c7565b8181036060830152612d328184612cb8565b905095945050505050565b600081519050612d4c8161232e565b92915050565b600060208284031215612d6857612d676122f8565b5b6000612d7684828501612d3d565b91505092915050565b7f4e487b7100000000000000000000000000000000000000000000000000000000600052601260045260246000fd5b7f4e487b7100000000000000000000000000000000000000000000000000000000600052603160045260246000fdfea26469706673582212206204c7578369e5a7b1577f60ed55be916f3c0c477b2d47d677487b7eaece245764736f6c63430008140033697066733a2f2f6261666b7265696864776463656667683464716b6a763637757a636d77376f6a6565367865647a6465746f6a757a6a657674656e78717576796b752f",
  "linkReferences": {},
  "deployedLinkReferences": {}
}